:020000041000EA
:1000000000B5324B212058609868022188439860DF
:10001000D860186158612E4B002199600221596106
:100020000121F02299502B49196001219960352056
:1000300000F044F80222904214D00621196600F024
:1000400034F8196E01211966002018661A6600F04E
:100050002CF8196E196E196E052000F02FF8012189
:100060000842F9D1002199601B49196000215960AB
:100070001A491B48016001219960EB211966A021F2
:10008000196600F012F800219960164914480160C1
:100090000121996001BC002800D000471248134993
:1000A000086003C880F30888084703B5996A0420EC
:1000B0000142FBD001200142F8D103BD02B5186610
:1000C0001866FFF7F2FF186E186E02BD00000240BE
:1000D000000000180000070000035F00212200005C
:1000E000F4000018222000A00001001008ED00E03C
:1000F00000000000000000000000000074B24E7A12
:1001000000200420F7010010C3010010C5010010F9
:10011000C1010010C1010010C1010010C101001097
:10012000C1010010C1010010C1010010C701001081
:10013000C1010010C1010010C9010010CB01001065
:10014000CD010010CD010010CD010010CD01001037
:10015000CD010010CD010010CD010010CD01001027
:10016000CD010010CD010010CD010010CD01001017
:10017000CD010010CD010010CD010010CD01001007
:10018000CD010010CD010010CD010010CD010010F7
:10019000CD010010CD010010CD010010CD010010E7
:1001A000CD010010CD010010CD010010CD010010D7
:1001B000CD010010CD010010CD010010CD010010C7
:1001C00000BE00BE00BE00BE00BE00BEEFF3058054
:1001D000103800BEF2EB887154180110701801102D
:1001E0003402001090A31AE700201F49086006C8D7
:1001F00081F3088810471D48006800282FD10DA4FE
:100200000ECC002902D000F012F8F9E71849194A7B
:10021000002000E001C19142FCD1174988471749ED
:1002200088471749884700BEFDE701C901C29A42C5
:10023000FBD3704770180110C00000202828002050
:10024000D83F01100000042000000420D83F011016
:10025000001004200010042000000000704709482E
:1002600003F09EF90047000008ED00E0000000D018
:100270002828002078330020551E00104506001065
:10028000891F00105756000006005250ABB3605350
:1002900088F6001006005250861C030298F60010E3
:1002A000060052505422A29DA0F6001005005250A4
:1002B000DE65F468D83F0110F8B5C04610B5064CAD
:1002C0002378002B07D1054B002B02D0044800E017
:1002D00000BF0123237010BD282A00200000000069
:1002E00030F20010044B10B5002B03D00349044832
:1002F00000E000BF10BDC046000000002C2A002016
:1003000030F20010F0B5D6464F464646C0B5344DE3
:1003100082B02A686B68934254D0D026314B0024B7
:100320009846360625E04B46002B48D12B6807221D
:100330006846D91903F08AFD002004F0E3FF002885
:1003400006D043461B78002B42D10023424613704F
:100350006B682A680134991ACB005B1898011B1846
:10036000DB005B18D8031B18DB005B185B42A34261
:1003700028D9E7003F1BD25D7368D3400122924623
:100380001A40914604F040F90028CCD12B6807228E
:100390006846D91903F05AFD002004F0B3FF002885
:1003A000D6D04B46002BCCD06B4600220133012126
:1003B000002004F0C3FF434652461A70C8E704F019
:1003C0002BF9C5E702B0E0BCBA46B146A846F0BD7D
:1003D000002300220121002004F0B0FFB5E7C04651
:1003E000AC2D0020703300207047C0467047C046D7
:1003F0007047C0467047C04630B585B06B460C7834
:1004000006220134E4B20021581C03F019FD042C2B
:1004100001D905B030BD05F077FA0722050069461D
:1004200002A803F013FD002004F06CFF0028F0D0B8
:10043000012CEED1002D06D10B4C2378002B0CD1D2
:1004400000232370E5E7092300226B4401210020EB
:1004500004F074FF044B1C70DBE700230022012131
:10046000002004F06BFFEBE77033002000207047A2
:1004700010B502A80088022A00D010BD0129FCD1C5
:100480000028FAD01B781A4203D0012005F03AFA6E
:10049000F3E7002005F036FAEFE7C0460368F0B551
:1004A00057464E4645469946DE46E0B515004A4653
:1004B00043680E00991ACA0052189A469301D2183E
:1004C000D2005218D303D318DB005B18304A5B42CA
:1004D000070083B0934258D00122002B02D05A006B
:1004E00093424BD84B46F31A9B46002A38D100233F
:1004F000072498460193404607222900584403F0F8
:10050000A5FCB1450DD045464C46210028000722E8
:10051000073403F09BFC0735B442F6D15C46073440
:100520004444B24507D053469D1B20002A003100A9
:1005300003F08CFC64194B46002B05D04A46BB687F
:100540004846991A03F090FC43463B60019B7C604F
:10055000BB6003B0F0BCBB46B246A946A046F0BDA6
:100560000B4B9A420FD8D400A41A200003F074FC5D
:100570002300804643440193C41DBCE74B46F31A55
:100580009B46044CF1E71A00EDE7034805F0ECF94F
:1005900092244912FEFFFF7F30F2001030B585B083
:1005A0006B4605220021981C03F04AFC6A46224B48
:1005B0000021138003A8032203F042FC1F4B204CB0
:1005C00002936068A368984225D00722694603F029
:1005D0003DFC636802ADD81DA3686060834224D0EF
:1005E0000722290003F032FC6368073363606B461F
:1005F000187800F0A9F8287800F0A6F86B461A7869
:10060000012319009140D0221206916229788B4073
:10061000936205B030BD01006A462000FFF73EFF3F
:100620006068A36802AD8342DAD101002A0020008D
:10063000FFF734FFDBE7C0461A0400001BE0E24C82
:10064000AC2D002070B505F05BF905F01DF803F046
:100650000BFE03F00DFEFFF7A1FF104D012000215E
:10066000404204F06DF800F041FF2C6800290CD0E6
:10067000FA220023920003F02BF8001B0928EDD981
:100680000A342C60FFF73EFEE8E7FA21890002F009
:10069000E1FF001B0928F3D8E0E7C046702A0020DC
:1006A0000022024B1A605A609A607047AC2D0020FD
:1006B0000048704794F2001000487047A8F20010FC
:1006C0000048704770F2001070B5002826D003284B
:1006D00031D81A4B8000C65830000EF039FAC0B23B
:1006E000011C1F2815D8C9B2002821D00023144DA1
:1006F000AA1CF05C0133DCB210800232A142F8D8AF
:10070000C0230131C9B249009B0019432800298048
:1007100070BD1F21C9B20028E8D109E0084D074B80
:1007200002221968A81C03F091FBC1218900EDE7A2
:100730000449034DEAE70020EAE7C046D81E00203E
:10074000CC2A0020020300000123D022834012069D
:1007500093629361094A8300944640226344196876
:10076000C0004A40C0211140802252011343196049
:10077000034B9C46052360444360704704C001401E
:1007800000400140024B18688007C00F7047C04608
:1007900000C0064070B5EFF3108C72B60D4D2B689B
:1007A000002BFCD0BFF35F8F0724CB08C618C05CBA
:1007B00001230C40A3401C000440034207D1034323
:1007C0003370BFF35F8F2C608CF3108870BD100006
:1007D00001F0DEFB2C0100D0F8B54746CE46884636
:1007E00080B5EFF3108C72B6214D2C68002CFCD034
:1007F000BFF35F8F9A422CD8D4080727055D0619EE
:1008000001241740BC402C421FD0072101278946F4
:1008100009E0D408055D06194C4639001440A14092
:100820000C00294211D001329342F2D20120404201
:10083000BFF35F8F00220E4B1A608CF310880028E4
:100840000FDBC0BCB946B046F8BD2C431000347075
:10085000EEE7BFF35F8F00232B608CF3108801203D
:1008600040424346002BECD0089801F091FBC04673
:100870002C0100D00021044B044ABFF35F8F02C358
:100880009342FAD17047C046000100D0800100D0E9
:10089000044A1078431CDBB2172B00D910231370C5
:1008A0007047C046E81E002000B5054B83B001002C
:1008B000009318221F230348FFF78EFF03B000BDEB
:1008C00098F30010B82D002001238340002904D0A4
:1008D000034A1360034A13607047034A1360FBE73F
:1008E00080E200E000E100E080E100E0024B103037
:1008F0009B688000C058704700ED00E070B50D00A7
:10090000EFF3108672B60F4A1368002BFCD0BFF3CA
:100910005F8F0D4B10309B6884001B590B4A93422C
:1009200003D09D4201D001F04BFB074B9B681D514A
:10093000BFF35F8FBFF35F8F0022024B1A6086F315
:10094000108870BD240100D000ED00E0CD01001042
:10095000F0B557464E46DE464546E0B585B0060042
:1009600002911700EFF3108B72B6674A1368002BE1
:10097000FCD0BFF35F8F0025644B5D579A46002D76
:1009800000DAA4E06B00624C03935B199B0098466D
:10099000A146C1444B4652469B79103613705D4BBD
:1009A000B2009B68019299580B1B2F2B34D95A4BDC
:1009B000994200D0A4E0039B584A9C46584B65449A
:1009C000AD006353434602336519E418554B0121CA
:1009D000043B1B1B1B055B0D13436B80524BEF71DC
:1009E000AB80FF23AB71029BAB604B460B431900FE
:1009F000484B019A9B689950BFF35F8FBFF35F8F9D
:100A00000022414B1A608BF3108805B0F0BCBB4646
:100A1000B246A946A046F0BD01200A008243D37920
:100A2000BB422FD845464E46130040491B1B5B4135
:100A30005943090D3A4B63533A4B02356519043B50
:100A40005B1B1B05354D5B0D2B4373800426B446A1
:100A5000E0444444131F1B1B4C46A17102991B0523
:100A6000A16049465B0D2B43A380314BE7710143E5
:100A70001360BDE75800C01880002018C679BE4238
:100A80002BD902000623D356002BF3DA101D824621
:100A90002848804604267642B446E14450464E46F5
:100AA000361A3005400D824656461C48957106435D
:100AB0009680039A944665441D4AAD0064192260ED
:100AC0004246A371029BA280E771A36090E701F008
:100AD00077FA002553465D5754E7101D82469088EB
:100AE0004005001584464046D4446646043020182C
:100AF000301AE0260005400D360230438046C9E733
:100B000001F05EFA57E7C046240100D0763300209A
:100B1000EC1E002000ED00E0CD01001000E0FFFF22
:100B200000A1FFFF1C1F002001BDFFFFAAAA0000BB
:100B30000148804701BD0000F0B5DE4657464E46ED
:100B40004546E0B50C0083B0EFF3108972B6584A01
:100B50001368002BFCD0BFF35F8F564B9A680300DD
:100B600010339F00D559544A9046954232D0A54241
:100B700043D0524EAA1B2F2A2CD8012282409246E3
:100B800051464F4A12681140019151464D4A116039
:100B9000BFF35F8FEFF305829346002A33D1012321
:100BA0002A009A4393689C4208D177E04B005B1877
:100BB0009B00F3189968A1422AD01A0006215156C9
:100BC0000029F3DA019B002B19D052463E4B1A60E4
:100BD0003B4B1A60374B9B68DD51BFF35F8FBFF310
:100BE0005F8F0022324B1A6089F3108803B0F0BC8B
:100BF000BB46B246A946A046F0BD1500EAE75246FC
:100C0000304B1A60E6E79342C9D001F0D9F9C6E744
:100C100006215956002921DB4A005018800034185B
:100C20008046A0689860E079D871062020569871B7
:100C3000002824DBA488F01A640524154444001914
:100C4000E0240005400D24022043988052181F4BD9
:100C50009200B6181A781970B271B3E75946002994
:100C60000FD1FF3191711A49918018490A789A7110
:100C7000184A9B1B5B415A43120D0A70A2E71648A3
:100C8000E3E7164A1649D21A083A5002400D0143CA
:100C90009980144952080A43DA8093E70621515695
:100CA00013000029B8DA5A46002AEAD14546DCE7A3
:100CB000240100D000ED00E0CD010010EC1E00206A
:100CC00000E100E080E100E080E200E07633002017
:100CD00001BDFFFFAAAA000001BD0000261F0020E1
:100CE00000F0FFFF00F8FFFF70B5EFF3058101246E
:100CF0000443EFF3108C72B6214A1368002BFCD02A
:100D0000BFF35F8F1F4B05001F4AED1A6D416A4309
:100D1000120D1E4D8900AE6852B27658A6421CD004
:100D20000621595691421CD012215956914222D087
:100D30001E215956914220D02A215956032491420E
:100D400010D0134B19781A708171BFF35F8F002296
:100D50000B4B1A608CF3108870BDAB680D4C5C5067
:100D6000EFE700246100091989005B18FF219971E0
:100D700009499980E5E70124F4E70224F2E7C04637
:100D8000240100D0EC1E0020AAAA000000ED00E023
:100D900076330020CD01001001BDFFFF054B064A50
:100DA0001360064A136053609360D360136153610C
:100DB000936170478080808000E400E004E400E0FC
:100DC000024B9C466144890001607047400000343A
:100DD00010B50400FFF75CFD01002000FFF7F0FFF5
:100DE000FF232371BFF35F8F10BDC04610B5040011
:100DF000FFF74EFD01002000FFF7E2FFFF23A38075
:100E0000BFF35F8F10BDC04610B504000120FFF78F
:100E10004BFD044B9C46604480002060BFF35F8F15
:100E200010BDC0464000003483680B4810B58446AE
:100E300061446244090112019A18591854684B68B8
:100E400001209C4201D802D00020C0B210BD12681F
:100E50000B689A42F9D8F7E7FFFFFF0F0A4B1968B2
:100E6000EFF3108072B60A68002AFCD0BFF35F8FE0
:100E70001B68BFF35F8F00221A6080F3108840BFA9
:100E8000002000217047C0465C330020F8B557466B
:100E90004E464546DE46E0B599460CAB1C780DAB98
:100EA0001B78060090469A460768002C11D1BC7B3F
:100EB000002C42D065003B682D19033D59194B7831
:100EC000BB73002B00D1FB7300238B704B700B7036
:100ED00004E065003B682D19033D5919B2682A4B9F
:100EE00094464246E3181B0163441A604A465A601E
:100EF0000A9A9A600B9ADA6000238B704B700B7021
:100F00007B7B9B46002B2BD022005946B8687B6820
:100F100098473A68002816D05B4658465B005B4409
:100F20005519033BA870D118D35C002B00D06B700F
:100F30005B460C707B73A34513D0F0BCBB46B24636
:100F4000A946A046F8BD5B465B005B44033BD31853
:100F50009C705119525D002A00D05A705B460B708C
:100F60007C7342464B46307D00F03AFB051E06D0AE
:100F70005346002B03D12100306800F05BFD0E9B2F
:100F8000002BDAD01D70D8E7FFFFFF0FF0B5DE466B
:100F900057464E4645460023E0B58BB00893664B56
:100FA0008200D45800239B46099000F09FFA6268A3
:100FB00006000F00EFF3108572B61368002BFCD00B
:100FC000BFF35F8F23689C465B7B9946002B68D0FC
:100FD000A2685A4B90464B441B01984443461A68FA
:100FE0005B6810001900801BB941002963DD099876
:100FF00000F0F6FA00230022984600230692079399
:1010000000239A466368BFF35F8F5A461A6085F3E0
:1010100010885346002B08D10028C6D10BB0F0BC75
:10102000BB46B246A946A046F0BD089B4146180201
:101030004B461843D047626806000F00EFF3108557
:1010400072B61368002BFCD0BFF35F8F002F4FDB0D
:1010500033003B4302D02369002B60D12368D97B46
:10106000002907D04A00521819688C464946624444
:10107000033A51709A7B002A01D14A469A734A4634
:10108000DA734B46E168013BCA5C0132CA545B46E5
:1010900023616368BFF35F8F5A461A6085F3108837
:1010A00083E700230022984600230692079300233B
:1010B00000209A46A6E7002901D1002897D10021F7
:1010C000604600F035FC43461A685B680692079359
:1010D00043469B689A464346DB689846E3684B4420
:1010E000013B1B7808931B0203432361002089E71F
:1010F0002369002BB2D0069A079B921BBB41002BA1
:1011000015DB59460491012103914946029141465C
:101110000191514620000091FFF7B8FEB7E700F0BB
:10112000E5F932003B0012184B41002BE9DA0122AD
:10113000034B5242E5E7C04640320020FFFFFF0F5D
:10114000FFFFFF7F10B5144C6368002B04D00A2109
:101150001248FFF735FE10BD2300114A1021206808
:1011600000F000FB032000F0B5F9032000F0A8FA1E
:1011700003200C4900F0EEF9FFF78AFB0A4B9C466E
:1011800003232375D0231B061B6860446375074B3C
:1011900080006060DC60DAE7341F00205C330020F0
:1011A000290E00108D0F0010400000344032002046
:1011B000F0B557464E464546DE46E0B585B001934C
:1011C00010AB1B780600039300239A4698460092C2
:1011D0007268EFF3108972B61368002BFCD0BFF36E
:1011E0005F8F3568AC7B002C49D067002B683F19B6
:1011F000033FDB195A78AA73002A00D1EA73B16859
:10120000484A8C4600980199A21812016244106065
:1012100051600E9991600F99D16042469A705A7050
:101220001A706B7B9B46002B45D022001900A868E2
:101230006B6898472A68002830D05B4658465B00A8
:101240005B44D719033BB870D118D35C002B00D096
:101250007B705B460C706B735C452DD0F3681B197B
:10126000013B18787368BFF35F8F42461A6089F3B9
:1012700010885346002B2CD10002204307E07368EE
:10128000BFF35F8F1C6089F310880120404205B0D6
:10129000F0BCBB46B246A946A046F0BD5B465B002B
:1012A0005B44033BD3189C70D119D25D002A00D057
:1012B0005A705B460B706C73307D009A019B00F096
:1012C0008FF982460028C9D02100306800F0B2FBB7
:1012D000C4E7039B002B23D00E9B00200F99984757
:1012E000030004000D000B431AD000290ADA009A0B
:1012F000019B121BAB4100920193002B0ADB039B65
:101300009A4665E700F0F2F824184D4100940195E3
:10131000002DF4DA0123044C5B4200930194EEE7C4
:101320000020B4E7FFFFFF0FFFFFFF7F70B54268AB
:101330000400EFF3108572B61368002BFCD0BFF3E6
:101340005F8F2068CEB2437BB3420AD0FF230B40AD
:101350005A00D318026894466344033B9B78002BE1
:1013600013D0E268FF2394460B406344013B0A0A12
:101370001978D2B291420ED000206368BFF35F8F1C
:1013800000221A6085F3108870BD22698A42F3D169
:1013900000202361F1E7310000F04CFBEDE7C0468F
:1013A00070B5EFF3058305000C0084B0002B0AD064
:1013B000164A0020536A9C4203D8926A0130AA421E
:1013C0001FD304B070BD124E02930193114B020063
:1013D000009330000B00FFF7EBFE011EE8DD20BF9D
:1013E0003000FFF7A3FF094B0020596A8C42E8D870
:1013F0009B6A0130AB42E4D2641A631E9C41E0B2A6
:10140000DFE7E41A631E9C41E0B2DAE700400540E2
:10141000341F00205D0E0010F0B5EFF30582D646B4
:101420004F4646461000C0B51038EFF3108872B62C
:10143000214C2368002BFCD0BFF35F8F01231900E0
:1014400081401E4D1F006963AA461D4D29601D4D38
:101450002E78AC463500C5402F402B4209D1BFF352
:101460005F8F276088F31088E0BCBA46B146A84673
:10147000F0BD5346144D5F6A83005D59AF420ED3F1
:10148000124A8E439B5862461670BFF35F8F00224C
:10149000226088F31088002BE6D09847E4E70C4BD5
:1014A00092009C46624413681360BFF35F8F002371
:1014B000236088F31088D7E7280100D0004005405A
:1014C0003C70054077330020603300209C2C0020C6
:1014D000D03F054010B50100024A0348FFF75AF912
:1014E00010BDC046C0F3001075330020034B596A8D
:1014F0000A00986A596A8A42FAD17047004005404A
:1015000070B504000D00124A536A1900966A536AB6
:101510008B42FAD13000190024184D41AB4211D84A
:101520000ED02B000A494A6A9A42FCD307D1084AD6
:1015300002E0516A994202D1916AA142F9D370BD89
:10154000A642EED9012301246442E5175B42E9E794
:101550000040054070B504000D00EFF3108672B630
:101560001A4A1368002BFCD0BFF35F8F002D1BD0ED
:101570002000FFF7BBF9164981420AD02000FFF78F
:10158000BDF901212000FFF79FF90123A340114A73
:101590001360114BA400E550BFF35F8F00220B4B8B
:1015A0001A6086F3108870BD0B4BA200D550012243
:1015B000A2400A4920000B7893430B700449FFF7BF
:1015C000BBFA00212000FFF77FF9E5E7280100D0F2
:1015D00019140010386005409C2C0020773300203F
:1015E000F0B54F46D6464646C0B507002F4C616A57
:1015F0000D00A66A616AA942FAD18B4208D805D0CB
:101600000120E0BCBA46B146A846F0BDB242F7D9C7
:10161000EFF3108A72B6264801680029FCD0BFF3A8
:101620005F8F0125BD402349204C884609788946B3
:101630002943C9B28C46414660460870391D1E4890
:10164000890065630A51B9000B50216A00202942C4
:1016500019D0616A0800A66A616A8142FAD18B4298
:1016600019D801D1B24216D8CC451DD00F4B1F203E
:101670001D625D6301230740BB40104A1E381360A2
:1016800043464A461A70BFF35F8F0022084B1A6028
:101690008AF31088B5E70020BFF35F8F0022044B68
:1016A0001A608AF31088ACE70120ECE7004005409F
:1016B000280100D0773300206033002080E200E072
:1016C000EFF3108C72B60A490B68002BFCD0BFF305
:1016D0005F8F01238340074A0748136202789A43C9
:1016E0000270BFF35F8F00230B608CF3108870478C
:1016F000280100D0004005407733002070B5050078
:1017000014001600002915D00C00002A12D08068A1
:101710006B689847296800280ED073009B196200F7
:10172000033B1219CB18033A9C7088188A5C002A74
:1017300015D10670200070BD63001B197200033BB9
:101740009219CB18033A9E7088188A5C002A02D13D
:1017500004703400EEE75A7004703400EAE75A70FF
:101760000670E7E730B583600023CCB243730133E2
:10177000047342608373C4730D000068012C06D9A2
:10178000421C0133DBB2137003329C42F9D1FF21BA
:1017900029404B005918002340180338437030BDCE
:1017A000F8B5CE46474606000C0080B5002907D0A4
:1017B0004D0003686D18033D5A195778002F04D166
:1017C0002000C0BCB946B046F8BD7900C91903393C
:1017D000884643445978894600215970517073688E
:1017E0003A002100806898473368002814D04246A8
:1017F0009A18947059195B5D002B00D053700F70CC
:10180000270049463000FFF7CBFF390002003000C7
:10181000FFF774FF0400D3E7424641465D19AF70FD
:101820009A185B5C002B00D06B701470E9E7C0461F
:10183000F0B557464546DE464E46E0B50D006B0016
:1018400001685B19DF1E0400C85D83B00192CA19EC
:10185000002850D043001B18033BCB185E78B446D9
:10186000002E1AD1019E002E42D0E67B002E04D01D
:1018700073009B19CB18033B5D70A37B002B00D139
:10188000A573E57300282FD10023537003B0F0BC7B
:10189000BB46B246A946A046F0BD72006244033A78
:1018A00089184A78904600224A7091465A70010081
:1018B00032002000FFF722FF43468246002B07D06C
:1018C0005B0021684344033BCB185A78002A16D1A9
:1018D000424651462000FFF711FF2168019BCA19BB
:1018E000002BC2D10028CFD043001B18033BCB18DC
:1018F00000219970C8E7019B002BB6D1C4E75000C6
:10190000801803380918487883464846487058704C
:1019100041462000FFF7F2FE594680462000FFF7BF
:101920003FFF414602002000FFF7E8FE8046CFE778
:10193000F0B557464546DE464E46E0B583B00191C8
:10194000457B04006B0000685B19DF1EC15DC21996
:10195000002952D04B005B18033BC3185E78B44695
:10196000002E1CD1019E002E44D0E67B002E04D018
:1019700073009B19C318033B5D70A37B002B00D140
:10198000A573E573002931D10023280053706173DA
:1019900003B0F0BCBB46B246A946A046F0BD7200FB
:1019A0006244033A80184278904600224270914681
:1019B0005A7020003200FFF7A1FE43468246002BFA
:1019C00007D05B0021684344033BCB185A78002AB8
:1019D00017D1424651462000FFF790FE019B0100BF
:1019E0002068C219002BC0D10029CDD04B005B1854
:1019F000033BC31800209870C6E7019B002BB4D1AD
:101A0000C2E75000801803380918487883464846D2
:101A10004870587041462000FFF770FE59468046D6
:101A20002000FFF7BDFE414602002000FFF766FEE2
:101A30008046CEE770B5040000292CD0437B8B4252
:101A40002ED0056848004018033828188278002AEC
:101A500021D053009B18033BEA5CEE188A4202D166
:101A60001BE0002A08D053009B18033BEB185A7860
:101A70008A42F6D142785A70002301228370437063
:101A80002000FFF7D5FE617B02002000FFF736FE45
:101A90006073012000E0002070BD43783370EBE7F5
:101AA00001221900FFF7C4FE60730120F4E7C0466D
:101AB00030B50C2083B000F0B1F9FEF763FE0028CA
:101AC0000ED0944B944A1A605A609A60DA601A6198
:101AD0005A619A61DA611A62904A5A6203B030BD63
:101AE0008F4CA06700F0A2F901228E4B1A60636C44
:101AF000012BFCD103228C4B1A60894A936B012B7A
:101B0000FCD101330121894A89480093043300F054
:101B10002DF90523874A00930121874800F026F913
:101B2000864B5A68FF2A02D8802252005A608022CF
:101B3000784C7D4B21691201804D1A60002905D037
:101B4000606901F087FD01300138FDD1E0217B4B58
:101B500002201A681140802252012A43116019683C
:101B6000484003210140116004219A681142FCD0D1
:101B70008022802192012A430901116080225200B3
:101B80005A606F4B23616F4B5968FF2900D85A6028
:101B90000321644A6B4B116002399A681142FCD0F0
:101BA000E0201A681040802252011A431060186821
:101BB0004840032101400220116062498A681042B6
:101BC000FCD0802292011343802212011A608022ED
:101BD0005D4B52004A6063615C4B5968FF2900D835
:101BE0005A6080225A4BE1691201584D1A6000294F
:101BF00005D0606901F02EFD01300138FDD1E022F1
:101C000052490B681A4080235B012B431A608023E2
:101C100080229B012B4312011A6080223E4B52000E
:101C20004A60E3614B4B5968FF2900D85A60802213
:101C3000494B216A1201474D1A60002905D060699D
:101C400001F008FD01300138FDD1E02241490B6867
:101C50001A4080235B012B431A60802380229B0162
:101C60002B4312011A60802380225B004B602A4BB9
:101C7000D2022362394B5968914200D25A608022C5
:101C8000374B616A1201354D1A60002905D0606931
:101C900001F0E0FC01300138FDD1E0222F490B6852
:101CA0001A4080235B012B431A60802380229B0112
:101CB0002B4312011A608023DB024B60174B6362D7
:101CC000284B5A68FF2A02D8802252005A6080228C
:101CD000254BA1691201234D1A60002905D06069C6
:101CE00001F0B8FC01300138FDD1E0221D490B683C
:101CF0001A4080235B012B431A60802380229B01C2
:101D00002B4312011A6080235B004B600E4BA361D2
:101D1000E4E6C046BC2D0020006CDC021BB70000CE
:101D2000008000403CB0004030B00040002F6859B7
:101D300000800240008C864700C002403080004096
:101D4000001BB7003C80004040597307548000409E
:101D500054B000406080004060B000406C800040A3
:101D60006CB000404880004048B00040F0B5C64626
:101D7000040000B50C2090461F000E0001F06AFC24
:101D80004101091A8D01691AC900091889014046E3
:101D900001F060FC069B3F041A0323681743002BE5
:101DA00022DB1A4B1A4DE21853425A4180235B0141
:101DB0009C461203174B62441A60174B1A601100BD
:101DC000AB689943FBD1C022231D92011A43212302
:101DD0002660A06013602368002BFCDA0823E7600C
:101DE000136080BCB846F0BD3F2322681340B34265
:101DF000D7D1A3681B051B0D8342D2D1EE22E36825
:101E0000D2021340BB42CCD1EBE7C0460040FDBF3D
:101E100000C0004000E0004000F000408023024A83
:101E20009B000343D362704700800540AA23064A03
:101E30001B0113602F230549D360054B19605368BC
:101E4000002BFCDA7047C0460040024000B0FA00A8
:101E5000006002402C4B2D4A70B51A602C4A2D4B65
:101E60002D491A6014008B689C43FBD12B4D2C4EDE
:101E7000B54208D2013E761BB60808CD984723002C
:101E80000134B342F9D1FFF713FE264A214B1A6001
:101E9000214A9368DB43DB01DD09002BF9D14022A5
:101EA000214B224C224E9A675A671A67DA66B4426F
:101EB00008D223682000002B20D00834FEF796FFBC
:101EC000B442F6D31B4E1C4CC022A168300001F076
:101ED000BDFFA660FEF7CEFCFEF760FFFFF732F90C
:101EE000164C174EB44208D2013E361BB60808CC39
:101EF00098472B0001359E42F9D170BD0834FEF79A
:101F000067FFB442D5D3DDE700E00040BFCDFBFE64
:101F1000FE7F3C0000F0004000C000400828002088
:101F200018280020FFFFFF0100F00140F0270020EB
:101F3000082800200000002000ED00E01828002004
:101F40002828002000BEFDE7094A03001068002889
:101F500005D00849C3188B4207D81360704706485C
:101F60000449C31810608B42F7D901204042F5E7BD
:101F7000342E002000000420783300200020704719
:101F8000012040427047C04610B5FFF7DBFFC04656
:101F90000FB400B5084883B002F096F8049B002BFC
:101FA00007D005A91800019101F0DAFA034802F000
:101FB0008BF80120FFF7C6FFE4F3001034FA00109D
:101FC00010B50148FFF7E4FFF4F300109A4200D285
:101FD000885470477047C046F8B557464E46454648
:101FE000DE46E0B599460A9B07009A460D9B884657
:101FF000934615000B9E9B0710D10C9B9E420DD261
:102000009D1B14000E005D4422004B46013431003C
:102010002020B847A542F7D1B0460B9E002E27D00E
:10202000444675195346AA1B013E985D21004B4654
:10203000B847002EF6D123002C0098460D9B9B0735
:102040000FD55B46E51A0C9BAB420AD9464698462B
:1020500022004B46310020200135B8470134A84505
:10206000F6D82000F0BCBB46B246A946A046F8BD53
:102070002C00E3E7F0B54F464646D646C0B584B0DF
:1020800098460EAB1B78129F994694460D9C109B68
:10209000119EBA0725D4002E4BD19C4200D3BFE03D
:1020A00001223A4092461F2C00D9B8E00C9A551EE6
:1020B000302201E0202C03D001342A55A342F9D864
:1020C0005246002A0DD0A6420BD9202C44D00C9A9F
:1020D000551E302201E0202C3ED001342A55B44256
:1020E000F9D1FA064DD57A053FD4002C39D10F9B92
:1020F000102B00D179E00F9B022B00D18AE0302316
:102100000C9A012413704B46002B3FD02D230C9AC0
:10211000135501340C9B6246009303974346029685
:102120000194FFF759FF04B0E0BCBA46B146A84697
:10213000F0BD012215003D40AA463A422FD04A4642
:10214000002A02D10C323A4200D0013E9C42BAD25F
:102150001F2CABD9202E27D92024FA06DAD57A05F0
:1021600003D4A3422DD0A6422BD00F9B102B32D0EC
:10217000022B20D0202CCDD030220C9B1B191A70A2
:102180000134202CC6D04B46002BBFD17B070DD489
:102190003B07BFD520230C9A13550134BAE79C4264
:1021A0009FD21F2C00D881E720249AE72B230C9A7A
:1021B00013550134AEE7202CACD00C9B1B19013415
:1021C0003AE0631E012C92D00F9A102A2AD0022ADC
:1021D0002FD01C00D0E7BB060ED4202C9AD00C9B2D
:1021E0001A19013478231370C4E7BB060DD4782381
:1021F0000C9A01241370BFE7202C00D18AE75822E3
:102200000C9B1B191A700134B4E758230C9A012453
:102210001370B1E70C9A603301241370ACE72024EB
:1022200000265EE7023CBA06E9D40C9A12191C009B
:10223000D8E70C9A9246534462221A709AE7C04635
:1022400010B5002800D110BD01F0F2FEFBE7C0463A
:10225000F0B5DE4657464E464546E0B59BB09B4638
:10226000249B89469846259B0B900C9240464246FB
:1022700019009A4601F0A7FC002800D0D8E00122FE
:1022800040465146774B524201F098FC002800D05E
:10229000CEE0012240465146734B524201F078FC99
:1022A000002800D0C4E0002200234046514601F03F
:1022B0006FFC002800D0B9E1424653460A920993C8
:1022C0008023289ADB001A400E92289A1A4201D1E4
:1022D000062326930A9A099B1600134300D0C7E0F1
:1022E000289B002500261B0500D49BE100230D93AD
:1022F000269A0D9B9A4200DC9FE1D01A431E26933A
:102300008023289ADB001A430023002728920D938C
:10231000279B0024BB4200D9DC1B0223289A1A40C9
:102320000E92289A134203D07B427B415B421C40B1
:102330000D9B002B07D00A9809992A00330001F061
:10234000CEFB0A900991002200234046514601F03D
:102350001FFC002805D080200006844609996144AE
:102360000991289A414B0B9D13400493269B0A9A8E
:102370000293099B03940092019349465B4628000F
:102380000C9A00F08BF90400002F62D0289B2200E9
:1023900098061F23C0179843631C984649465B461E
:1023A0006530A8470D9B0025DA179C18DB0F9A466D
:1023B0005440013F01E0202D13D00AAA94461F2368
:1023C000200063440A2101355E1901F043F93031E0
:1023D000317020000A2101F03DF926000400092E89
:1023E000E9D805230693002304930A330393534645
:1023F00005970B9F029312AB009342465B464946FA
:1024000038000195FFF736FE0E9B0400002B20D00C
:102410000C9BC51A279BAB421BD91E0022005B46B2
:10242000494620200135B8470134AE42F6D810E0C5
:10243000289B42460493279B49460393269B0B986F
:1024400002935346009201935B460C9A00F026F9E2
:10245000040020001BB0F0BCBB46B246A946A04613
:10246000F0BDC046FFFFEF7FFFFFEFFFFFF7FFFF6D
:10247000734B099F9C467800400D604401F0B6FB09
:10248000704A714B01F045FB704A714B01F022FB21
:102490003B03704A1B0B1A4304000D00300011006F
:1024A0006D4B002201F011FB6C4A6D4B01F031FBCA
:1024B00002000B002000290001F00CFB01F0AEFB34
:1024C0000D9001F093FB674A674B04000D0001F08B
:1024D00020FB0022654B01F0FDFA01F09FFB644AEE
:1024E0000600644B2000290001F013FB04003000BB
:1024F0000D000F9601F07AFB5F4A604B01F009FB7B
:1025000002000B002000290001F0DFFA02000B009E
:1025100006000F0001F0FDFA320004000D003B0040
:102520003000390001F0D6FA002210901191544B7E
:102530002000290001F0D3FA0022524B01F0CAFA20
:1025400002000B002000290001F0C9FA00224E4BC6
:1025500001F0C0FA02000B002000290001F0BFFAD0
:102560000D008021040032003B000020C90501F06D
:10257000ACFA02000B002000290001F0ABFA0200C7
:102580000B001098119901F0AAFA0022314B01F0CA
:10259000A1FA3E4B0F9C9C4664440022230501F0A7
:1025A000B8FA05000E0002000B000A98099901F024
:1025B000EFFA00280AD00D9B2800013B31000D9353
:1025C0000022304B01F08BFA05000E00C6270D9952
:1025D0002B0063318F42BF4128997F4204370905A0
:1025E00000D495E6334300D182E6099C284A2100B5
:1025F000284B0A9801F0DAFA002808D000222100BE
:10260000254B0A9801F0C4FA002800D070E6269BFA
:10261000002B00D17CE60E9B5A1E9341269AD31ABA
:10262000269375E6002304270D9371E643460A932B
:1026300080231B065344099342E6002326935FE65A
:1026400001FCFFFFFB799F501344D33FB3C8608B5D
:10265000288AC63F0000F03F0000F83F61436F63E7
:10266000A787D23F71A379094F930A400000E03F4A
:102670001655B5BBB16B0240EF39FAFE422EE63F6C
:1026800000002C400000244000001840FF03000020
:102690002D431CEBE2361A3F80842E41F0B54E46A6
:1026A000DE4657464546E0B597B09946209E219FA5
:1026B000229B8346984607910C923B0032003000E3
:1026C000390001F080FA002800D0A9E10122300091
:1026D0003900CA4B524201F05BFA002800D0E1E019
:1026E000012230003900C64B524201F067FA00283F
:1026F00000D0B7E0002230003900C24B01F05EFA92
:10270000002800D099E0002230003900BE4B01F0D3
:102710003FFA002800D090E000220023300039006A
:1027200001F036FA002800D0B1E000230D93249B7D
:102730005B0501D40623984608AB9C46172200246B
:1027400030234146624404E0013413550139202C02
:1027500001D00929F8D888463000390001F05EFA26
:102760004346DA00A94B05009B181A685B6808927B
:10277000099301F03BFA02000B003000390001F030
:10278000A4F9089A099B01F0C4F90A900B9101F091
:1027900069FA824601F026FA02000B000A980B99AA
:1027A00001F093F900229A4B0A900B9101F006FA7E
:1027B000002800D1C0E001239C46E244504601F0CD
:1027C00011FA02000B000898099901F0E7F90028B6
:1027D00002D000239A4601354346002B6AD008AB4D
:1027E00017269C4608956644554614E001235B4233
:1027F00043440A2128009A4600F02CFF013430316E
:102800003719397028000A2100F024FF092D00D85B
:10281000D0E0D0460500202CE8D10EAB984603232B
:10282000249A1340012B00D196E02023249A01938F
:102830000392239A434602921EE0249B5846049337
:10284000239B00960197039343460C9A02930799A2
:102850004B46FFF7FDFC17B0F0BCBB46B246A9469D
:10286000A046F0BD249B5B070ED40322694B24993C
:102870000192039123990291009358464B460C9A7A
:102880000799FFF7A9FBE6E70422634BEFE73B005C
:1028900032000020002101F018F9012306000F008A
:1028A0000D9344E7249B0393239B029304230193FA
:1028B0005A4BE1E7280001F099F902000B003000C3
:1028C000390001F002F9524B002206000F0001F01E
:1028D0005FF90EAB984600280AD10022300039007B
:1028E0004B4B01F06BF9002802D1EB0700D5013505
:1028F000202C94D008AA94461723280063440A2168
:1029000001341E1900F07EFE3031280031700A219A
:1029100000F078FE051EEBD10323249A1340012B0F
:102920001BD0202C00D180E70D9B002B35D02D2211
:102930004146631C0A5579E700220A980B99344BEB
:1029400001F026F9002800D046E75346002B51D16C
:1029500001239C46E2443FE72024239B002BE0D048
:102960000D9B002B03D1249A0C33134202D0239BDE
:10297000013B2393239BA342D3D908AB9C46172248
:1029800030236244202C00D14FE7239901341355A2
:102990008C42C6D0202CF8D147E7249B5B0724D477
:1029A000249A2300120700D440E720224146013335
:1029B0000A553BE75746089D202C00D12DE7220001
:1029C00030214046002F09D00132B154202A00D1D5
:1029D00023E7D3431B191B18002BF5D10EAB9846E8
:1029E0002E234146541C8B5482E72B224146631C04
:1029F0000A551BE7DB0700D4EEE6A9E7FFFFEFFF70
:102A0000FFFFEF7F65CDCD4165CDCDC1F8F500105D
:102A10000000E03F00F4001004F4001010F4001077
:102A2000249B0393239B029303230193004B23E7EF
:102A30000CF40010F0B5DE464E4657464546E0B56C
:102A40009FB01C00289B91460993C94AC94B8B46ED
:102A500008901A60002900D118E2002320789A46D5
:102A6000002800D11AE226001D005C460AE02A0078
:102A70006F1C4B46089D2100A8473D000136307869
:102A8000002870D02528F2D110239B46083B9A4697
:102A9000043B9846023B00219C46721C10781600AD
:102AA0000300203BDBB2102B03D8B34F9B00FB5835
:102AB0009F460300303B092B32D900230A932A2872
:102AC00068D0002398462E283ED00300683BDBB236
:102AD000122B1CD8A94A9B00D3589F4601230132D0
:102AE0001943DBE7634601321943D7E74346013216
:102AF0001943D3E75B4601321943CFE7534601320E
:102B00001943CBE780235B0070781943013603003B
:102B1000253BDBB2532BAAD8994A9B00D3589F463A
:102B200000270300B800C01901364000C0183378F0
:102B300030381A00303A0700092AF3D90A901800F1
:102B4000002398462E28C0D180237078DB001943DB
:102B50000300303B721C092B00D8A1E12A2800D1C8
:102B6000B2E11600B1E7A346AA462C00D14503D82E
:102B700001235B424B449A464B465246594600203D
:102B8000089DA84720001FB0F0BCBB46B246A9462E
:102B9000A046F0BD099B40CB0A96002E03DB50787F
:102BA0000993561C8DE72838014370420A90099317
:102BB0005078561C85E7782800D1DFE1582800D1ED
:102BC0004CE26F2800D14FE3622801D100F030FCC5
:102BD00010230A009A430B92692801D000F0A9FC47
:102BE0000A230C934B0500D5D0E10B9A80231100EA
:102BF0009B0019408B461A4200D0A1E280231100AD
:102C00005B0019408A461A4200D0B6E313005B0607
:102C100000D5EDE2130009991B0601D400F076FC03
:102C200008C91BB2D8171A18424092B209919346AC
:102C3000DA0F1292002B09D1802310220B99DB00AE
:102C40000B4091430B91002B00D0E4E20B9A6123DF
:102C5000920600D541230EA91F228C46DBB26244A6
:102C60000A3B5F461395A34655460C9CB2460D930E
:102C700016000AE03033DBB201357355A74200D2AB
:102C8000EDE2202D00D1EAE207002100380000F03B
:102C9000E1FCCBB20929EDD90D9A94466344DBB22D
:102CA000EAE780239B007078194301362FE770789C
:102CB000682800D1CDE180230136194327E77078D9
:102CC0006C2800D1BFE180235B00194301361EE769
:102CD000462800D19BE10722099B049107339343C7
:102CE0000A9A19000392424602920CC9089800926F
:102CF000019309912A004B462100FFF7CFFC0136D2
:102D00000500BCE62A006F1C4B46089D21002520CB
:102D1000A84701363D00B2E68B0700D4ADE1099B20
:102D20002A009A466B1C9846534601CB21009A46CE
:102D3000089F4B46C0B2B8470A9B9C466544012B8E
:102D400000D886E2089B4746B04626004C46994686
:102D50003A002300013731002020C847AF42F7D1A5
:102D6000A1465346340046460993013687E6C046DD
:102D7000352A00103832002018F400105CF40010DE
:102D8000A8F40010099B04CB9B4643460992002BF4
:102D900000D1C6E013789C46002B00D1BDE343462A
:102DA000013B099A0133D0180A9F130001E08342C6
:102DB00003D05A780133002AF9D1099A0A979B1A4D
:102DC0000B9380230A00DB001A400C92194204D0B6
:102DD0000B9B434501D943460B9302231A000A403B
:102DE0000D920B4200D187E16046002800D168E1D6
:102DF0000C9B002B00D10DE1A844C246099B57460D
:102E00005B1B9846089BB2462A0026004C46994612
:102E100009E023003100551CC8474346585D00288F
:102E200000D126E12A009742F3D1A1463D003400AB
:102E300056460D9B002B00D043E15B4601360993BB
:102E40001DE6099B1A0008CA9246002B48D0212291
:102E500011438B460EA884461F2161440995002228
:102E60000F27A4460D0002E0202A0CD00B003C00E6
:102E70001C4020003730092C00D807380132A854F4
:102E800019090F2BF0D86446099D32E0DC4B2078FD
:102E9000089300239A46002800D0E4E5002465E664
:102EA000434606000A9F9800C0180132400080196E
:102EB0001678030030003038303B0928F3D9300051
:102EC000984616000A9700E6099B023604CB904606
:102ED000D2434046D2171040804609933078F4E53B
:102EE0001022080090431132104383460022490506
:102EF000B0D55B46069308230593434604931023FD
:102F000003930023029316AB019200932A004B46D1
:102F100021000898FFF7AEF85346050001360993E3
:102F2000ADE513789C46002B00D1F7E202235B420B
:102F300037E7202302009A43472A04D180231B014C
:102F4000194302239843452801D12023194307221E
:102F5000099B0491073393430A9A1900039242464E
:102F600002920CC908980092019309912A004B46DD
:102F70002100FFF76DF90136050080E510230C9361
:102F80000C230A009A430B924B0503D501230B9A9D
:102F90009A430B92692800D127E6642800D124E6E1
:102FA0000B9A802311009B0019408B461A4200D0D7
:102FB00066E1802311005B0019408A461A4200D066
:102FC00039E213005B0600D53CE113001B0600D478
:102FD000A6E2099B04CB1204120C934609935B46AC
:102FE000002B00D09AE10B9A1033110099430B91FA
:102FF000520500D492E100239A460B9B06930A9B4C
:103000000593434604930C9B039300230CE1202378
:10301000194360E6099B0A9A5B1B98464B4691460A
:103020001F00B2462600089C2A003B003100A04742
:1030300043460135585D0028F6D14A463400B9466A
:1030400056460A92F5E6C0239B00B0781943023633
:103050005DE5C023B0781943023658E50C230A0019
:103060009A4314331A43103B0B920C934B058DD4A7
:1030700096E7A14634005646DBE60A9A012A00D8B4
:1030800053E26B1E9F18089BB04626004C4699469B
:103090002A002300013531002020C847BD42F7D166
:1030A000A14634004646099B3A0001CB21009846D0
:1030B0007D1C4B46089FC0B2B84743460136099372
:1030C000DDE40B9B0A9AA8469A4200D8B5E69446DE
:1030D0006544ED1A089B4746B04626004C46994683
:1030E0003A002300013731002020C847AF42F7D112
:1030F000A14634004646A0E60B9A0A99531C914219
:1031000000D814E24B199B1A1F00089BB2462600F8
:103110004C4699462A002300013531002020C8473B
:10312000BD42F7D10A9BA14601330B93099B3400A2
:103130001B7856469C466046002800D058E67CE640
:103140000722099B07339343013294469C4462460D
:103150005F6809921A68FB171093119310981199E0
:10316000030053400E930B007B400F9394460E9A3E
:103170000F9B121A8B410E920F93FB0F6246129314
:1031800000233A439B463DD00B9A6123920600D51B
:1031900041230022DBB20EA90A3B8C4692460D93D6
:1031A00043461F3262441395159655460E9E0F9F57
:1031B000A24690460C9C14930CE03032D2B24346A7
:1031C00001355A55BB4500D18AE1202D00D18AE155
:1031D00006000F00220000233000390000F078FACA
:1031E000D2B2092AE9D90D9B9C466244D2B2E6E7E5
:1031F000FF23099904C913401A00099117E5C04635
:10320000D51F00100B9A1033110099430B915205F2
:10321000BAD500239A460B9B06930A9B0593434617
:1032200004930C9B0393129B02935346019316AB9A
:103230002A00009321004B460898FEF71BFF013639
:1032400005001CE4FF22099B02CB11408B46099329
:10325000C5E65346454609930136FFF710FC56462E
:103260005C46AA46139DD6E708230C930B910B9955
:10327000642800D084E60B9B5B0500D586E6B4E4A9
:103280000722099B07339343013294469C446246CC
:1032900009921A685B6810009B4613005A46134354
:1032A00007D10B9A1033110099430B91520500D5A9
:1032B000A1E60B9A6123920600D541230022DBB2DE
:1032C0000EA90A3B8C4692460D9343461F32624438
:1032D0005F461295A34655460400B24690460C9EA2
:1032E00013930DE03032D2B2434601355A550023D4
:1032F000BB4200D100E1202D00D100E104000F000D
:10330000320000232000390000F0E2F9D2B2092A8D
:10331000E8D90D9B9C466244D2B2E5E70B9A612343
:10332000920600D54123DBB20EA90A3B1F228C4630
:103330000D93230062445C461295170055469B4648
:10334000B2460C9E08E03033DBB201357B55B44207
:103350000ED3202D0CD004003100200000F07AF9AB
:10336000CBB20929EFD90D9A94466344DBB2ECE75E
:1033700056465C46AA46129D3FE6099B1A0008CABB
:10338000D91713925A184A409246DA0F1292002B1C
:1033900008D1802310220B99DB000B4091430B9145
:1033A000002B2BD10B9A6123920600D541230EAA44
:1033B0001F279446DBB20A3B0D9567445D4609938F
:1033C000A3465446B2460C9E08E03033DBB20135CA
:1033D0007B55B4420ED3202D0CD0040031002000C8
:1033E00000F038F9CBB20929EFD9099A9446634421
:1033F000DBB2ECE756465C46AB460D9D0B9B2A00C4
:1034000006930A9B21000593434604930C9B08985E
:103410000393129B013602935B46019316AB009314
:103420004B46FEF727FE139B05000993FFF727FB8A
:1034300002230C931AE7099B04CB92461293002AAD
:1034400008D1802310220B99DB000B4091430B9194
:10345000002B2BD10B9A6123920600D541230EAA93
:103460001F279446DBB20A3B0D9567445D460993DE
:10347000A3465446B2460C9E08E03033DBB2013519
:103480007B55B4420ED3202D0CD004003100200017
:1034900000F0E0F8CBB20929EFD9099A94466344C9
:1034A000DBB2ECE756465C46AB460D9D0B9B2A0013
:1034B00006930A9B21000593434604930C9B0898AE
:1034C0000393002302935B46019316AB00934B4694
:1034D000FEF7D0FD129B050009930136FFF7CFFAE6
:1034E000B44200D871E6149B54460E960F97AA4634
:1034F0009846159E139D8EE6A64200D8FBE6139BC8
:1035000056469846AA465C46129D76E508C9D817E5
:103510001A1842400991FFF78AFB00230B9350E4ED
:10352000099B04CB9346099359E52F00BBE50B9308
:1035300001E6063B0C939AE60EB4012210B585B065
:1035400007AC08CC01000094524204480394FFF7F2
:1035500071FA05B010BC08BC03B01847CD1F0010AD
:1035600010B5094A0300146884B0002C08D0012269
:1035700000910648524203A9A047012004B010BDA3
:1035800000F0A2FD0020F9E73832002041220010AF
:1035900001480421014B1847601F0020C13500106D
:1035A000142310B50100188804331B88984710BDF8
:1035B000162310B50100188802331B88984710BDE8
:1035C000F8B54746CE4680B50F1E19D0142399464C
:1035D000043304000025012698464B4618884346CC
:1035E00021681B88984701C4431E98410135404219
:1035F0000640AF42F1D13000C0BCB946B046F8BD7C
:103600000126F8E7124A936F9B0815D29066D1669F
:10361000002905D0FFE7FFE7FFE7516F106F704704
:1036200004B580210906C2175140002800D0C843C4
:103630000BF076FD002104BDF0B5146E556E576F8A
:10364000166FFFF7E3FF1466556657671667F0BD00
:10365000000000D0114A936F9B0813D21066516688
:10366000002905D0FFE7FFE7FFE7516F106F7047B4
:1036700004B5002801D00020C0430BF051FD00210B
:1036800004BDC046F0B5146E556E576F166FFFF748
:10369000E5FF1466556657671667F0BD000000D059
:1036A00094464A4A926F9208624601D228E0C04688
:1036B000F0B5464E346E756E776F366F00F020F8B9
:1036C0009446424A14665566576716676246F0BDCF
:1036D00094463E4A926F9208624601D254E0C04638
:1036E000F0B53A4E346E756E776F366F00F04CF869
:1036F0009446364A14665566576716676246F0BDAB
:10370000002B24DB11D000293EDA00B5C94340422A
:1037100000D1013100F038F8C943404200D10131F5
:10372000DB43524200D1013300BD002AEBD1002817
:1037300001D1002905D00020C90FC90701D1C0431C
:10374000410800B50BF0ACFC0022002300BD00B521
:1037500000290ADBDB43524200D1013300F014F8A8
:10376000C943404200D1013100BDC943404200D1AC
:103770000131DB43524200D1013300F005F8DB4355
:10378000524200D1013300BD002923D1002B18D1B2
:10379000002A0CD0BC460D4F38667A660021002303
:1037A000FFE7FFE7FFE77A6F386F6746704700284B
:1037B00001D00748010000B50BF072FC0022002385
:1037C00000BD02000B00002000217047000000D067
:1037D000FFFFFFFF002B00D0BFE0130C28D1002A11
:1037E000E7D080B4114F39667A66FFE7FFE730B45F
:1037F000040C7B6F396F1B0423433B667A66FFE73B
:10380000FFE7FFE7C04684B27B6F3D6F1B04234395
:103810003B667A66FFE7FFE7C04600232C042D0CC9
:103820007A6F386F00196941B0BC7047000000D052
:10383000F0B594460025140E01D112020835140F7C
:1038400001D112010435940F01D192000235D40F39
:1038500001D152000135D40B0134254F7C66254C33
:103860003C660E0C93B2FFE7FFE7FFE73C6F664351
:10387000360C7703BE467343DF0B5B04C01AB941B5
:10388000130C7343DB18C91ACE086643360CB644D2
:1038900093B273431F0F1B01C01AB941130C73433A
:1038A0001F0B1B05C01AB941860D8F023E436643AC
:1038B000360C092D24DB520A7243801A7703460A1C
:1038C0006643360C16235B1BDE40DF40BF1964469F
:1038D0006643821B7046043506330100D940A84078
:1038E000C01900D30131A24206D20023F0BD00006E
:1038F000000000D0FFFFFFFF121B0130F3D3F1E700
:1039000009277F1BFE406446A2B27243801A00D290
:103910000139220C7243130C1204821A99410B00D4
:103920007046043513370100F940A840801900D3D0
:103930000131002B02D1A2420AD2F0BD013000D3E6
:103940000131121BFAD2013BF8D1A24200D2F0BDE4
:10395000013000D30131121BF7E7F0B51C0C00D089
:1039600080E00CB400251C0A04D11B02160E334360
:10397000120208351C0B04D11B01160F3343120130
:1039800004359C0B04D19B00960F33439200023503
:10399000DC0B02D192185B4101351C009718644181
:1039A0000134464F7C66464C3C660E0CFFE7FFE751
:1039B000FFE7C0463C6F6643360C7703BE4697B2BE
:1039C0007743C01B00D20139C01B00D201399FB21E
:1039D0007743C91BC91B170C77437E04FF0B801B61
:1039E000B941CE086643360C0C2D33DBB644120BBE
:1039F0001F053A431B0B97B27743C01B00D2013916
:103A00009FB27743C91B170C77433E043F0C801BC2
:103A1000B941860D8F023E43664329277F1BFE4036
:103A20000C3D7746AF40BF1930BCA2B2ABB2724377
:103A30007343801A9941220C7243130C1204801AAA
:103A4000994102000B000137001BA941F9D2781EF1
:103A50000021F0BD0C277F1BFE4077467F0BAF4057
:103A6000FF19E0E700245D1C07D0144F7D6639661E
:103A7000FFE7FFE7FFE7FFE73C6F95B29EB26543C4
:103A80006643401BB141150C1E0C6543664336046A
:103A90002F0C3E432D04401BB141994204D2020039
:103AA0000B0020000021F0BD01D19042F7D3801A15
:103AB000994101349942F2D3F6E70000000000D0AA
:103AC000FFFFFFFF48404140484018B4134B5B687C
:103AD000019308BD18B4114B1B68019308BD9446AF
:103AE0000F4A926F920805D2624618B40B4BDB68FE
:103AF000019308BD0A4AF0B5146E556E576F166FE4
:103B00006246FFF7F2FF064A146655665767166766
:103B1000F0BD18B4014B9B68019308BD2829002013
:103B2000000000D0FFB550404240504059404B404B
:103B3000594000E0FFB5154F4C00640D03D0BC4266
:103B400004D10C0314D80020090D09055C00640D94
:103B500003D0BC4204D11C030AD800221B0D1B0554
:103B600001264B4009D44B4003D58B4200D1824201
:103B7000FFBD9942FCD19042FFBD0B43DB180343CC
:103B80001343F5D0C9434918FFBD0000FF070000EB
:103B900000B5FFF7CFFF804100BDC04600B5FFF77D
:103BA000C9FF01D9002000BD012000BD00B5FFF70D
:103BB000B9FF01D9002000BD012000BD00B5FFF70D
:103BC000B1FF804100BD012040054A00121804D811
:103BD0005A00121801D800207047012070470020B9
:103BE000704700000021002805D17047C1174840E8
:103BF000401AFAD0C90713B5064B1B6898470CBC8E
:103C0000441CA2401005120B0349091B0905194366
:103C1000114310BD583200201F04000010B54C00A5
:103C2000620D8023D218DB00D21A5B057E2A10DDDC
:103C30009E3A13DACC170903490819435242D1407E
:103C4000640001341532202A05DAD040084360436D
:103C500010BD002010BD0846604310BDC80FC0183D
:103C6000013810BD18B4024B5B6A019308BD000017
:103C70002829002010B50148FEF78AF948F60010FF
:103C8000132370B51D78012D11D035DD1C48FFF7C9
:103C90008FFC1C4C01008022200000F0D7F8022D80
:103CA00027D01948FFF77CFC184B186070BD184BE3
:103CB000144C23606360A360E36023616361A361CC
:103CC000E36123626362A362E36223636363A363CA
:103CD000E36323646364A364E36423656365A365AA
:103CE000E36523666366A366E36623676367A3678A
:103CF000E367084BA364D4E7024C064BA364D0E708
:103D000053440000282900204C3300005832002082
:103D1000753C0010193D001007B5604601880A0A7D
:103D20000230DF2AFAD1C9B2820804D3028840885F
:103D30000004104300E00068014A5050039007BDA2
:103D40002829002051434343C9188C46110C83B2E3
:103D50004B4310B4040C614392B280B250436243AF
:103D60001C041B0C001910BC59411304120CC01880
:103D7000514161447047000010B50148FEF708F951
:103D8000800F0110132310B510481C78FFF710FCAA
:103D90000100012C0AD003DD80220D4800F056F806
:103DA0000C48FFF7FDFB0C4B186010BD084C54226B
:103DB000200000F04BF82300084A803321680029D6
:103DC00000D122600434A342F8D1E9E75346000051
:103DD0005C3200204C33000058320020793D001046
:103DE00010B504000AF0F0F8002804D0034B0419C1
:103DF0009C4200D810BD0248FEF7CAF8000004201B
:103E000060F6001010B50C000AF0FEFB002804D08C
:103E1000034B04199C4200D810BD0248FEF7B8F8C5
:103E20000000042060F6001010B50AF0D7F810BDAD
:103E300001480421014B1847701F0020C1350010B4
:103E4000014B1B6818470000701F0020014B5B6886
:103E500018470000701F002010B5FFF7C1FF10BD0C
:103E600010B5FFF7E1FF10BD10B5FFF7DDFF10BD86
:103E7000030010B5080011001B68984710BDC0462C
:103E8000F0B546464F46D646C0B5437D80460E0047
:103E90001700002B46D0002A3FDD4B1E9946244BCD
:103EA0000125002400209A460DE04B461B5D0D3B8A
:103EB0005A425341325DDBB20A2A0BD02B00013447
:103EC00001359F421ADD002CEFD14346325D1B7D48
:103ED0000A2AF3D1002BF1D1A04204DA4346211A79
:103EE0001B6830189847434650461B680221984784
:103EF000013428002B0001359F42E4DC874204DDB9
:103F00004346391A1B6830189847F619013E337832
:103F10000D3B5A42534142461375E0BCBA46B14686
:103F2000A846F0BD0368110030009847F5E7C04689
:103F3000D0F60010F0B5DE4657464E464546E0B591
:103F400085B017001C0006000D00FDF7CFFA002316
:103F5000304A12184B41002B58DB2F4908008A4683
:103F60000BF006F901906B1C03D130000AF0F0FD54
:103F70000500002C25D1294B9846294B1C68002CA4
:103F800015D0002F20D1274F02E02469002C0ED03D
:103F90002368002BF9D03B68002B01D0A342F4D159
:103FA00020002A003100C0472469002CF0D1019B79
:103FB000002B27D105B0F0BCBB46B246A946A046AF
:103FC000F0BD194B9846D8E7164B994602ABDF1D5A
:103FD0000A239B4602E02469002CE8D02368002BCA
:103FE000F9D04B461B68002B01D0A342F3D12A0025
:103FF00031002000C0475B460122390020003B70A1
:10400000C047E8E750460BF043F8D3E70122074BDF
:104010005242A2E740420F00F0270020813E0010EC
:10402000242E0020302E0020713E0010FFFFFF7F65
:10403000F0B5CE46474680B583B06B460600DD1D21
:104040002870FDF753FA00231A4A12184B41002B2F
:104050002BDB1949080088460BF08AF8174B81467C
:104060001C68002C14D0164F02E02469002C0FD0DD
:104070002368002BF9D03B68002B01D0A342F4D178
:10408000200001222900FFF7FBFE2469002CEFD15C
:104090004B46002B05D1300003B0C0BCB946B0463A
:1040A000F0BD40460AF0F4FFF5E70122054B52420D
:1040B000CFE7C04640420F00F0270020242E00200A
:1040C000302E0020FFFFFF7F70B504000AF040FD96
:1040D00000230100050001222000FFF72BFF084B01
:1040E0001C68002C06D06368002B05D09847246913
:1040F000002CF8D1280070BD2469002CF3D1F9E719
:10410000242E0020F0B54746D64680B516000F0095
:1041100083B000282DD11C4B1C4D1A685B6801929E
:1041200000931B4B9A461B4B984653461C68002C29
:1041300003D114E02469002C11D02B68002B01D08E
:10414000A342F7D1A368002BF4D031003800984780
:104150000028EFDD03B0C0BCBA46B046F0BD434610
:1041600000995B6A994209D842460198926A824254
:1041700002D301204042EDE79942FAD1012000210B
:10418000FDF7BEF9D1E7C046B8F30010302E00208D
:10419000242E002000400540F0B54646D6464F4646
:1041A0000138C0B50D00160001283ED8FDF79EF974
:1041B00000231F4A12184B41002B32DB1D49B04629
:1041C000080089460AF0D4FF8246731C03D12800F8
:1041D0000AF0BEFC8046184B1C68002C14D0174F08
:1041E00002E02469002C0FD02368002BF9D03B6833
:1041F000002B01D0A342F4D1200042462900FFF752
:104200003FFE2469002CEFD15346002B05D130002E
:10421000E0BCBA46B146A846F0BD48460AF038FFB1
:10422000F5E70122064B5242C8E701267642EEE747
:1042300040420F00F0270020242E0020302E0020C6
:10424000FFFFFF7F012040427047C04601204042EF
:104250007047C046012040427047C046030002221A
:1042600000209A424041704710B500F001F810BD9F
:104270000020704710B5024800F004F810BDC04699
:104280005032002030B5002589B0040009220021F9
:1042900001A80095FFF7D4FD0922002105A8049587
:1042A000FFF7CEFD4B236A466846137004A90D2222
:1042B0000AF0E6FE1521082220006944FFF7C6FD3A
:1042C00009B030BD10B501210520FCF7FDFA10BD85
:1042D00010B500220021024800F066F910BDC0466A
:1042E000582E002080219022034B89029950802271
:1042F0005201DA647047C046002011508022024B00
:104300005202DA647047C04600201150F0B5C6462C
:1043100000B5060000F022F90C231B4DFF22AB670D
:1043200005201A49FCF714FB40239846184C4022FC
:1043300000212000FFF784FD43460127238321212C
:104340000023144A6770A260136063545F31618474
:1043500041462187053963540F4A10496360E26082
:10436000A1620B606362E2620AF02AFF80239B0570
:104370002F64EB6490230A4A3000EA50FFF7BEFF37
:1043800080BCB846F0BDC04600001150B504002006
:10439000382E002084001050000110508000105072
:1043A00010D001000B785B0602D14B78052B00D0B2
:1043B00070478A78014B1A60FAE7C0460000115036
:1043C000F0B5C64600B54B790C791B0288782343BB
:1043D000CC787F21A4070140C509A20F4F0014002B
:1043E000324E7A195201B218907001206840507014
:1043F00000205B055B0DD0701383D4768046CA0025
:10440000012D33D02A488446880162448446B4444E
:104410006046826040461060002933D0254AC900BA
:1044200090466246414451603F223F339343022C01
:1044300000D15B0020487A1901685201B218D1609E
:104440001E4ACB18036051405340802288465201D7
:10445000934228D84346A4061C4380237F197F013A
:104460001B06F6191C4373681C6011E0144884464F
:10447000880162448446B4446046826240461060CB
:10448000002909D100236D01761973600D4BF3608B
:10449000012080BCB846F0BD084AC900904662467B
:1044A00041445162C0E7FDF78BFDD3E7382E002071
:1044B00084001050040010503C32002000001050C6
:1044C000800010500001105010B50AF079FE10BDA8
:1044D00010B57F200C0020404000E40911000019B5
:1044E0001A00034B4001C01800F05EF8012010BD17
:1044F000382E00207F22130010B50B400A420BD04B
:10450000C90980225800401806494001401812018C
:1045100000210AF065FE10BD02220348C909521AA3
:104520008266EEE7382E0020002011507F22100016
:1045300010B508400A4200D110BD0023C90940004F
:10454000401804494001081800220349C3700AF0CA
:1045500047FEF1E7382E0020FFF7FFFF80220D4BCA
:10456000520410B51A600C4B0C491A6010008B688D
:104570009843FBD10A4C9C2200212000FFF760FCED
:104580008022002152010748FFF75AFC0923636784
:1045900010BDC04600E0004000F0004000C00040F8
:1045A000000011500000105070B5837E04000D0013
:1045B0001600002B17D10023E38201332000A682CE
:1045C000A37625610AF094FD002804D08021902371
:1045D000084A8902D15020000AF012FE002805D0B6
:1045E0000123237770BD0AF0E3FDE4E720000AF021
:1045F000C7FDF7E700201150024B5878431E984141
:10460000C0B27047802B0020024B18784007C00FC3
:104610007047C046802B0020094A10B513785B070D
:10462000DC0F002B05DA182312781340182B02D068
:104630000024200010BD034B1878FFF753FEF8E765
:10464000802B0020A41F0020034B1878FF38431E46
:104650009841C0B27047C046A41F0020F8B5CE46AE
:10466000474680B52C4E050033780120FF2B03D040
:10467000C0BCB946B046F8BD532200212748FFF719
:10468000DFFB274C2000FCF7A3FB264B1C60264CCD
:1046900020001430FCF7B8FB200001F011F9234B87
:1046A000234F1C60234B9846002B04D0380000E0B9
:1046B00000BF214B1860424600243B78002A23D0DB
:1046C0001E4A90461C4A9146A34212D80FD1434637
:1046D000984701343B78E4B2A342F5D22800357004
:1046E000FFF714FE2800FFF7EDFD0120C0E70020D2
:1046F000BEE74A461268630094461B19DB00634418
:10470000002BF4D01B68E3E700F05EFE3B7800204E
:10471000002BADD1E2E7C046A41F0020802B002073
:10472000382B0020D42B0020881F0020D82B0020FD
:104730007233002000000000B42A0020C95300108A
:10474000F0B5DE4657464E464546E0B58BB000F024
:10475000A1FF002800D10EE1CE4BCF4F9A46CF4D9E
:1047600007AC3E687269EFF3108172B61368002BD4
:10477000FCD0BFF35F8FB1613000210001F00CF875
:104780007269B369BFF35F8F0021116083F31088F2
:10479000002800D1EFE06378082BE2D852469B0056
:1047A000D3589F466368002BDBD0A0689847D8E7B2
:1047B0007F222179B94E0A4050003618B046CB0905
:1047C0009844404601263030C378B343C370C37861
:1047D0000336B343C370002A00D1F1E04346B04A28
:1047E000DB7C002A06D0AF4A1278934200D245E122
:1047F0009B1ADBB2002B00D0BDE0AB4E6279207873
:10480000A368B047ADE701222B78012113432B7039
:1048100033230420EA5C8A43EA54EA5C8243EA5484
:104820000133EA5C8A43EA54EA5C8243EA5423781F
:1048300000209B4600F0D4FC602223791A40602AB5
:104840000DD0402A00D1C1E0DB06DB0E012B00D1E8
:104850003CE1022B00D1D6E0002B00D1C5E020784E
:104860000021FFF747FE80212078FFF743FE78E71D
:104870008A4E3378DB0700D473E78C4B002B00D1D2
:104880006FE7FBF7B7FD6CE7844E3378DB0700D4A6
:1048900067E7874B002B00D163E730780007C00F34
:1048A000FBF7A6FD5DE723787D4A98467D4B002601
:1048B00099461B78002A00D17AE07E4A9346B3429B
:1048C00060D819D17C4B404698474B4601361B783F
:1048D000F6B2B342F3D2714E532200213000FFF7FB
:1048E000AFFA1022FF21F01CFFF7AAFA30002022B5
:1048F000FF211330FFF7A4FA00F068FC6F4B002B88
:1049000000D12EE7FBF772FD2BE72378644A984627
:10491000644B002699461B78002A1FD0654A9346AF
:104920009E423AD321D1644B404698474B460136CC
:104930001B78F6B2B342F3D2584E53220021300016
:10494000FFF77EFA1022FF21F01CFFF779FA300002
:104950002022FF211330FFF773FA07E0404600F0F2
:104960003DFD4B461B78002BE6D04C4E00F02EFC54
:104970002379B370F5E60BB0F0BCBB46B246A9464E
:10498000A046F0BD5A461268730094469B19DB009E
:104990006344002BB0D05B6895E75A4612687300F9
:1049A00094469B19DB006344002BDED05B68BBE7B9
:1049B000404600F013FD4B461B78002B9CD18AE744
:1049C00062792078A36800F01FFCCAE63C48002802
:1049D00000D144E700F004FC0121584608AA00E099
:1049E00000BF002800D0BCE639E7202A00D1A2E0B1
:1049F000002A00D033E76379092B00D92FE7314A29
:104A00009B00D3589F467023217A0B4200D026E7A3
:104A10000F330B405B00E818CE090093204B801940
:104A2000C07C002B06D01F4B1B78984200D2A5E01B
:104A3000C01AC0B2002800D09AE0002A00D058E185
:104A4000214B984663791A00994602239A43012A1A
:104A500000D152E14B46002B00D000E7009B06AA94
:104A6000EB189E193036F37802329B07DB0F138068
:104A70005846022308A900F04BFB72E65A00D318EF
:104A80000C4ADB001268D318002B00D173E71E69B3
:104A9000B4E6C0463CF70010D82B0020802B002045
:104AA000000000007233002025560010F5030010AE
:104AB000F1030010B42A0020DD530010ED030010B4
:104AC0000000000060F70010C8F70010237A0F2BD9
:104AD00000D9C4E6B54AEB18DB78002A05D0B44A01
:104AE0001278934263D39B1ADBB2002B00D0B6E658
:104AF000B048B14E00F074FB01215846F36808AA93
:104B00009847002800D02CE66022160023791E402A
:104B10001A4200D0A3E663790A3B012B00D99EE636
:104B200000F05EFB63790A2B00D135E1584608A9F5
:104B300000F0D6FA15E6237A0F2B00D98FE69B4AB0
:104B4000EB18DB78002A06D0994A1278934200D2FB
:104B5000F6E09B1ADBB2002B00D080E69548964E1B
:104B600000F03EFB01215846F36808AA984738E751
:104B7000002A00D073E60023984663E74300984676
:104B80008E4B40441B68C00098468044002A00D1E8
:104B900058E74346002B00D161E6D86800F020FBBF
:104BA000434601215846DB6808AA984719E7834A1B
:104BB0005E00F3181668DB00F618002E00D14EE6F2
:104BC000F06897E7A37900931A006B789A4207D0B0
:104BD0006B78002B00D057E1009B002B00D0F9E050
:104BE000009B584608A96B7000F07AFAB9E56B781B
:104BF00006AA023213705846012308A900F088FA69
:104C0000AFE5E088030AC0B20F2B00D927E66C4954
:104C10009A008A58974608A800F0E8FA5846A17901
:104C2000FFF756FB02222B7813432B7099E5E3889C
:104C3000012B00D013E608222B785846934308A98D
:104C40002B7000F04DFA8CE50220297806AB9A1CF7
:104C50008B068908DB0F01400B4308E7E388012B33
:104C600000D0FCE508222B785846134308A92B7086
:104C700000F036FA75E5534B002B00D1EFE500E06C
:104C800000BF021E00D1EAE5D37891781B020B43E6
:104C9000584608A900F03CFAA3E64B4B002B00D184
:104CA000DDE500E000BF021E00D1D8E558461378CC
:104CB00008A900F02DFA94E62189FBF705FD021EF4
:104CC000F4D1CCE5022B00D11CE1404B002B00D1EC
:104CD000C5E500E000BF0200002A00D1BFE5D3E730
:104CE000FBF7E6FC1223020008A9584600F010FA70
:104CF00077E6314B2F48984650E7E288002A09D1E1
:104D00004B46012B27D0009BEB189E193036F378C9
:104D10009B0734D54346002B00D122E5D86800F02C
:104D20005FFA43460121DB6808AA584698470020ED
:104D300000F056FA3423EB5CDB0700D511E5F5E60D
:104D40001E4A5E00F3181668DB00F618002E00D12C
:104D500085E5F06804E7009BEB189E193036F37880
:104D60009B07D7D51A4B1878FFF7E0FB0222F378A0
:104D700093434A46F370F3789343F370CAE7144BB6
:104D80001878FFF7B7FB0222F37813430122F37080
:104D9000F3781343F370BDE706AB9A1C5846012322
:104DA00008A9167000F0B4F9DBE4C046000000006A
:104DB000723300207D540010C8F70010B42A002080
:104DC00088F7001000000000000000000000000054
:104DD000A41F0020581EC0B2FBF772FC002800D1AF
:104DE0003DE54378022B00D039E50121C2799311CA
:104DF00052110B400A4012015B0113432A782F31F4
:104E00008A4313432B700923994681444E46C37845
:104E100082781B021343C3180293029BB34200D84B
:104E2000ADE00122737803920B2B03D1F378039347
:104E30003378F6187378042B00D010E50021029B1C
:104E4000554A9B1B9BB20193544B884604931B7895
:104E50008A4268D032000E0090469E4256D300D05F
:104E6000FDE44F4B019A4146584691469847082821
:104E700003D94B46834200D388E0049B01361B785C
:104E8000F6B2B342E9D2EAE45846FFF71DFBAB782D
:104E9000414A0193414B002699461B78002A0ED0C7
:104EA000404A90469E4223D31FD13F4B58469847D5
:104EB0004B4601361B78F6B2B342F3D206E05846B1
:104EC00000F08CFA4B461B78002B0ED153220021A8
:104ED0002800FEF7B5FF1022FF21E81CFEF7B0FF07
:104EE0002022FF213148FEF7ABFF019BAB7073E638
:104EF000424618231268734394466344002BF4D04F
:104F00005B68D3E7FBF7DCFB0200E5E6254B1B689B
:104F100005931823059A734394466344002B00D1EC
:104F20009DE49B689EE731005846019A00F060FAC4
:104F30008146082800D892E4019B834200D28EE487
:104F4000002240460AE0B378D318DBB2EB18D978D8
:104F5000FF2900D083E40132D870D2B2039B9A4279
:104F6000F1D18046030031004A46104800F0FAFBB8
:104F7000049B4E441B78434500D34EE76FE40C4B33
:104F8000002B00D12CE6FBF72FFA29E64346814699
:104F9000B0461E00D4E7C046000000007233002077
:104FA000F1530010B42A0020DD530010932B002091
:104FB000E9030010F8B557464E46DE4645460C005C
:104FC000E0B516001F00002A3CD0702398461E4B07
:104FD00000259B461D4B9A461AE05B461B78200035
:104FE00099465346997800F081FB00281CD0210097
:104FF0004846FFF7E5F9002816D0A378DA09012A18
:1050000019D00A9A013513702378E418B54219DAD9
:105010006378052B08D1E3789B079B0FBB4203D134
:105020004246A3781A42D8D00020F0BCBB46B24614
:10503000A946A046F8BD0B9A013513702378E418F1
:10504000B542E5DB0120F0E7A41F0020802B002003
:10505000074B080019687F2310B50340C0095B00A7
:1050600033301818034B181800F018FB10BDC04659
:10507000D42B0020802B00207F2070B508400F4CDF
:105080004000CD09241864193034E5780020ED077C
:1050900000D570BD0126E578094835430078E570F4
:1050A000FFF716FA0028F4D10122E3789343E37066
:1050B000E37803329343E370EBE7C046802B002094
:1050C000A41F00207F22CB090A40044952008918FE
:1050D000C9183031C878C007C00F7047802B002036
:1050E00070B50A4E0500300008220C00FEF7AEFE37
:1050F00000237F21F3602278B36091425B41280056
:10510000D90100220023FFF7B7FF70BDB82A0020A5
:10511000F8B5CE46474691462A4E80B5082207008C
:1051200030000D009846FEF791FE4B46B360002319
:10513000F381EC79A97924020C43231C444500D95E
:1051400043469AB29046B381002C13D0002A1FD058
:105150004B46002B34D0131C402A1FD89BB29846D4
:1051600033787F2B20D80021174A43463800FFF7B9
:1051700083FF09E07F222B7838009A4264410023A4
:105180000022E101FFF778FFC0BCB946B046F8BD88
:1051900033787F2B11D980210022E6E740239BB290
:1051A000984633787F2BDED9074C4246494620008B
:1051B000FEF74CFE80212200D7E700210022D4E731
:1051C0000020E1E7B82A0020402B002010B514226F
:1051D00000210248FEF734FE10BDC046B82A002068
:1051E000014B18617047C046B82A002010B5054C25
:1051F000010008222000FEF729FE0023A360E360DF
:1052000010BDC046B82A0020F8B53B4C1D002378DD
:105210000600DA09C9098A4213D00020002D00D007
:10522000F8BD364B002B03D021003000FFF7BAF851
:105230002369002B44D0220003213000984701202D
:10524000EEE77F2B06D8A068002837D02A002C492B
:10525000FEF7FCFDA368E28959195219E38892B25E
:10526000E281A160934214D03F2D12D9A589A81ADA
:10527000071C80B240282FD82378BFB27F2B2DD8AF
:105280000021AA4235D01E4A3B003000FFF7F4FE51
:10529000C6E72369002B05D0220002213000984781
:1052A00000280FD07F220021237830009A42494104
:1052B00000230022C901FFF7DFFEB1E70020AFE7BE
:1052C0000120ADE700213000FFF714F93000802104
:1052D000FFF710F90120A3E74027CDE7AA4207D046
:1052E000074C3A002000FEF7B1FD80212200CBE7F9
:1052F00080210022C8E7C046B82A0020A54300103C
:10530000402B00202C2343430B4810B5C018447891
:10531000FFF772F9002801D1002010BDFFF774F9E2
:105320000028F9D1002CF7D021000020FFF7CAFE99
:1053300001235840C0B2F0E70C2B0020F0B54746DF
:10534000CE4680B583B06E460F0019000023327040
:1053500005000622737000292FD0B01CFEF776FDE1
:105360002C246C43174BA1469846C1444B46002061
:105370005978FFF76DFE00280FD0002F12D10834A6
:105380004444230006CE06C308232C20454345444D
:10539000220000206978FFF76FFE03B0C0BCB94659
:1053A000B046F0BD4B46083444441F720822310019
:1053B000601CFEF74BFD0923E7E70021B01CFEF758
:1053C0003FFDCDE70C2B002010B52C220021024818
:1053D000FEF736FD10BDC0460C2B002010B52C2268
:1053E00000210248FEF72CFD10BDC0460C2B00200A
:1053F000F0B54B7906000D0083B0032B0AD1087974
:10540000C400241A1234A4B2944203D81A4F7B78F1
:10541000002B03D00024200003B0F0BD09786918E8
:105420004B78212BF6D1B9620B780200C9187B1C8E
:105430000193BB1C009330000323FFF7BBFD002842
:10544000E8D0AB79012B13D001233B71AB78BA6A5A
:105450003B70137AD1791B020B43B978FB8000298A
:10546000D9D03A00102330001832FFF705FED2E7FA
:10547000EB79FB70E8E7C0460C2B00201F23F0B54A
:1054800014001278050083B01340012B17D1614E30
:1054900020793378984212D16023180010401342CB
:1054A00008D020280BD163780B2B08D85A4A9B00D0
:1054B000D3589F46012908D16378062B07D00020D6
:1054C00003B0F0BD721D012957D00120F8E7E37841
:1054D000212B00D180E0222BF1D10020FBF7ECF84A
:1054E00021000200F3882800FFF712FE0120E7E701
:1054F000012917D00329E8D1A178484B3171002B3D
:10550000E3D0002000E000BF0120D9E70129DCD171
:10551000E178434B7171002B04D0002000E000BF04
:105520000028CCD021002800FFF7DAFD0120C7E7D2
:1055300001295BD00329C8D1E079A379000218437F
:10554000E278A178041C102800D910243300A4B2FA
:105550001833002908D0012806D9307E884203D1AB
:105560003300013CA4B2193300200094FAF780FF05
:105570000120A5E70129A8D1321D0123210028001F
:10558000FFF7C6FD01209BE701299ED1E379A079B1
:105590001B020343E278A178181C102B00D91020BD
:1055A00080B2002931D0012B2FD9330001270138D7
:1055B000317280B2093300900020FAF757FF3F188C
:1055C000BBB2002B00D17AE732002100280008325C
:1055D000FFF79EFD012073E7B26A002A00D16EE753
:1055E000210028001378FFF793FD69E7E379A2799A
:1055F0001B021343102B00D961E732002100280061
:105600001832FFF785FD01205AE7330000270833E1
:10561000D1E7C0460C2B0020E0F70010000000008E
:105620000000000070B5164C0500A27882B08A42D6
:105630000FD16178914211D1124A0125002A05D07B
:10564000210000209AB20831FAF7D6FE280002B0F5
:1056500070BD627800258A42F8D1EDE726009BB242
:10566000183600220021002000933300FAF700FFD3
:10567000280010233200A178FFF7FEFC0500E5E7C3
:105680000C2B0020F903001010B50020FEF7E6FFF8
:1056900010BDC04610B5FEF7D7FF10BD037870B53A
:1056A000DB0704000E00DD0F002B17D103785B072A
:1056B00001D5280070BD01213000494209F048FDA4
:1056C0002378DB07DD0F002B0AD123785B0708D492
:1056D0000422237801251343237002E00025E8E724
:1056E0000025300009F0D4FCE3E7C04610B543794B
:1056F00004791B0223435B055A0DC3789B079B0F5C
:10570000022B05D0032B15D00020012B08D010BD93
:1057100002291CD00020402393424041C0B2F6E74A
:1057200002394B4259410D4B9C46614491424041E4
:10573000C0B2ECE702394B425941F0230020494204
:105740009B001940403191424041C0B2DFE7044B19
:10575000D3185A425341D8B2D9E7C046FF030000DC
:1057600000FEFFFF8A1870B5914207D27F264C7861
:10577000052C04D00C7809198A42F8D870BD340081
:105780008D782C4064000419ED0963550C780919D3
:105790008A42ECD8F2E7C04670B5040000690E00FA
:1057A000002803D00121494209F0D2FC25896089F3
:1057B000A288A9B283B285422CD3CD1AADB2002DF6
:1057C0002ED0AA4208D2914231D38B1A9BB2638168
:1057D0009A4203D89B1A9BB29A42FBD9E28821686D
:1057E0005204520C53433000C918FEF72FFB618955
:1057F00001254B1C9BB2A288994214D90023520068
:105800009B1A9BB220696381002801D009F040FCFB
:10581000280070BD5500ED1A4D19ADB2002DD0D144
:10582000002563899BB252009342EBDBE8E78918BD
:105830008BB26381CCE7C046F8B50400C0680E00A7
:10584000002803D00121494209F082FC25892089E2
:105850006189A288ADB283B28FB2884228D3DB1BA4
:105860009BB29A4209D8E779FF0906D1E06800287F
:1058700001D009F00DFC3800F8BD2B00954203D390
:105880009B1A9BB29342FBD2E28821685204520CCD
:105890005343C8183100FEF7D9FAA2886B1C9BB29B
:1058A00052009D4209D99B1A9BB201272381DDE753
:1058B0005100C91B5B189BB2D3E79342F5DBF2E7BB
:1058C00010B50400C068002803D00121494209F046
:1058D0003FFC2069002803D00121494209F038FC2F
:1058E0000023E06863812381002801D009F0D0FB08
:1058F0002069002801D009F0CBFB012010BDC04673
:105900007047C0467047C04610B509F071FC0123CE
:105910005840C0B210BDC046042010B500F0C2F817
:10592000024B034A0349036000F0B2FD44F8001043
:10593000A159001020F8001070B50500082000F0F3
:10594000B1F82900040000F0BDFF2000044A054919
:1059500000F09EFD200000F0BBF800F0E1F8C0462A
:10596000B567001044FA001070B50500082000F07B
:1059700099F82900040000F0E9FF2000044A0549D5
:1059800000F086FD200000F0A3F800F0C9F8C04642
:10599000F567001050FA00100048704710F800102A
:1059A00010B50400034B0833036000F087F92000B2
:1059B00010BDC0463CF8001010B50400054B08337C
:1059C000036000F07BF920000421FEF74DFA20006F
:1059D00010BDC0463CF8001070B51C4C0838636818
:1059E000002B27D006688519AB4223D81DD05A68F2
:1059F0000434002A06D10EE051681C1D00291FD076
:105A000013000A009542F7D304D12A6894466A68C5
:105A100066445A6023681A68991888420DD05B68FA
:105A2000066043602368586006E01A685B68944625
:105A3000664406604360606070BD92191A60FBE7BF
:105A40005B681A6899188842E9D1F6E7502A002065
:105A5000020010B50832083000D30822072310498D
:105A6000073248689A43002813D0043103E0011D2F
:105A7000406800280DD003689A42F8D89C1A072C79
:105A800008D9831840681C605860086802600B6081
:105A9000083010BD0360436808300B60F9E7C0466A
:105AA000502A002070B580300500FEF799F9041ED9
:105AB00007D0802200212000FEF7C2F920008030AC
:105AC00070BD2800FFF7C4FF041EF2D100F080FC77
:105AD000074A8038936810B5984203D9D2689B185A
